{
  "_format": "hh-sol-artifact-1",
  "contractName": "ChainRegistry",
  "sourceName": "contracts/ChainRegistry.sol",
  "abi": [
    {
      "inputs": [],
      "stateMutability": "nonpayable",
      "type": "constructor"
    },
    {
      "anonymous": false,
      "inputs": [
        {
          "indexed": true,
          "internalType": "address",
          "name": "account",
          "type": "address"
        }
      ],
      "name": "EntityDeactivated",
      "type": "event"
    },
    {
      "anonymous": false,
      "inputs": [
        {
          "indexed": true,
          "internalType": "address",
          "name": "account",
          "type": "address"
        },
        {
          "indexed": false,
          "internalType": "string",
          "name": "name",
          "type": "string"
        },
        {
          "indexed": false,
          "internalType": "enum ChainRegistry.Role",
          "name": "role",
          "type": "uint8"
        }
      ],
      "name": "EntityRegistered",
      "type": "event"
    },
    {
      "anonymous": false,
      "inputs": [
        {
          "indexed": false,
          "internalType": "string",
          "name": "sensorId",
          "type": "string"
        },
        {
          "indexed": true,
          "internalType": "address",
          "name": "owner",
          "type": "address"
        }
      ],
      "name": "IoTDeviceRegistered",
      "type": "event"
    },
    {
      "anonymous": false,
      "inputs": [
        {
          "indexed": true,
          "internalType": "address",
          "name": "manager",
          "type": "address"
        }
      ],
      "name": "ManagerAdded",
      "type": "event"
    },
    {
      "anonymous": false,
      "inputs": [
        {
          "indexed": true,
          "internalType": "address",
          "name": "manager",
          "type": "address"
        }
      ],
      "name": "ManagerRemoved",
      "type": "event"
    },
    {
      "inputs": [
        {
          "internalType": "address",
          "name": "_manager",
          "type": "address"
        }
      ],
      "name": "addManager",
      "outputs": [],
      "stateMutability": "nonpayable",
      "type": "function"
    },
    {
      "inputs": [],
      "name": "admin",
      "outputs": [
        {
          "internalType": "address",
          "name": "",
          "type": "address"
        }
      ],
      "stateMutability": "view",
      "type": "function"
    },
    {
      "inputs": [
        {
          "internalType": "address",
          "name": "_account",
          "type": "address"
        }
      ],
      "name": "deactivateEntity",
      "outputs": [],
      "stateMutability": "nonpayable",
      "type": "function"
    },
    {
      "inputs": [
        {
          "internalType": "address",
          "name": "",
          "type": "address"
        }
      ],
      "name": "entities",
      "outputs": [
        {
          "internalType": "string",
          "name": "name",
          "type": "string"
        },
        {
          "internalType": "enum ChainRegistry.Role",
          "name": "role",
          "type": "uint8"
        },
        {
          "internalType": "string",
          "name": "licenseNumber",
          "type": "string"
        },
        {
          "internalType": "string",
          "name": "location",
          "type": "string"
        },
        {
          "internalType": "bool",
          "name": "isActive",
          "type": "bool"
        },
        {
          "internalType": "uint256",
          "name": "joinedAt",
          "type": "uint256"
        }
      ],
      "stateMutability": "view",
      "type": "function"
    },
    {
      "inputs": [
        {
          "internalType": "address",
          "name": "_account",
          "type": "address"
        }
      ],
      "name": "getEntity",
      "outputs": [
        {
          "components": [
            {
              "internalType": "string",
              "name": "name",
              "type": "string"
            },
            {
              "internalType": "enum ChainRegistry.Role",
              "name": "role",
              "type": "uint8"
            },
            {
              "internalType": "string",
              "name": "licenseNumber",
              "type": "string"
            },
            {
              "internalType": "string",
              "name": "location",
              "type": "string"
            },
            {
              "internalType": "bool",
              "name": "isActive",
              "type": "bool"
            },
            {
              "internalType": "uint256",
              "name": "joinedAt",
              "type": "uint256"
            }
          ],
          "internalType": "struct ChainRegistry.Entity",
          "name": "",
          "type": "tuple"
        }
      ],
      "stateMutability": "view",
      "type": "function"
    },
    {
      "inputs": [
        {
          "internalType": "string",
          "name": "",
          "type": "string"
        }
      ],
      "name": "iotDevices",
      "outputs": [
        {
          "internalType": "address",
          "name": "",
          "type": "address"
        }
      ],
      "stateMutability": "view",
      "type": "function"
    },
    {
      "inputs": [
        {
          "internalType": "address",
          "name": "_account",
          "type": "address"
        },
        {
          "internalType": "enum ChainRegistry.Role",
          "name": "_requiredRole",
          "type": "uint8"
        }
      ],
      "name": "isAuthorized",
      "outputs": [
        {
          "internalType": "bool",
          "name": "",
          "type": "bool"
        }
      ],
      "stateMutability": "view",
      "type": "function"
    },
    {
      "inputs": [
        {
          "internalType": "address",
          "name": "",
          "type": "address"
        }
      ],
      "name": "managers",
      "outputs": [
        {
          "internalType": "bool",
          "name": "",
          "type": "bool"
        }
      ],
      "stateMutability": "view",
      "type": "function"
    },
    {
      "inputs": [
        {
          "internalType": "address",
          "name": "_account",
          "type": "address"
        },
        {
          "internalType": "string",
          "name": "_name",
          "type": "string"
        },
        {
          "internalType": "enum ChainRegistry.Role",
          "name": "_role",
          "type": "uint8"
        },
        {
          "internalType": "string",
          "name": "_license",
          "type": "string"
        },
        {
          "internalType": "string",
          "name": "_location",
          "type": "string"
        }
      ],
      "name": "registerEntity",
      "outputs": [],
      "stateMutability": "nonpayable",
      "type": "function"
    },
    {
      "inputs": [
        {
          "internalType": "string",
          "name": "_sensorId",
          "type": "string"
        },
        {
          "internalType": "address",
          "name": "_owner",
          "type": "address"
        }
      ],
      "name": "registerIoTDevice",
      "outputs": [],
      "stateMutability": "nonpayable",
      "type": "function"
    },
    {
      "inputs": [
        {
          "internalType": "address",
          "name": "_manager",
          "type": "address"
        }
      ],
      "name": "removeManager",
      "outputs": [],
      "stateMutability": "nonpayable",
      "type": "function"
    },
    {
      "inputs": [
        {
          "internalType": "address",
          "name": "_newAdmin",
          "type": "address"
        }
      ],
      "name": "transferAdmin",
      "outputs": [],
      "stateMutability": "nonpayable",
      "type": "function"
    }
  ],
  "bytecode": "0x608060405234801561001057600080fd5b50336000806101000a81548173ffffffffffffffffffffffffffffffffffffffff021916908373ffffffffffffffffffffffffffffffffffffffff16021790555060018060003373ffffffffffffffffffffffffffffffffffffffff1673ffffffffffffffffffffffffffffffffffffffff16815260200190815260200160002060006101000a81548160ff0219169083151502179055506126f5806100b76000396000f3fe608060405234801561001057600080fd5b50600436106100b45760003560e01c8063ac18de4311610071578063ac18de43146101a2578063dc35a8ed146101be578063e6dc9fc7146101ee578063f24f82411461020a578063f851a44014610226578063fdff9b4d14610244576100b4565b80631d8ee48a146100b95780632d06177a146100ee57806366f497041461010a57806375829def1461012657806375894e8c14610142578063aab720df14610172575b600080fd5b6100d360048036038101906100ce919061170d565b610274565b6040516100e596959493929190611875565b60405180910390f35b6101086004803603810190610103919061170d565b610462565b005b610124600480360381019061011f9190611a45565b6105fc565b005b610140600480360381019061013b919061170d565b6109b3565b005b61015c6004803603810190610157919061170d565b610b4a565b6040516101699190611c22565b60405180910390f35b61018c60048036038101906101879190611c44565b610db9565b6040516101999190611c9c565b60405180910390f35b6101bc60048036038101906101b7919061170d565b610e02565b005b6101d860048036038101906101d39190611cb7565b610fbc565b6040516101e59190611cf7565b60405180910390f35b61020860048036038101906102039190611d12565b611094565b005b610224600480360381019061021f919061170d565b61148a565b005b61022e61160d565b60405161023b9190611c9c565b60405180910390f35b61025e6004803603810190610259919061170d565b611631565b60405161026b9190611cf7565b60405180910390f35b600260205280600052604060002060009150905080600001805461029790611d9d565b80601f01602080910402602001604051908101604052809291908181526020018280546102c390611d9d565b80156103105780601f106102e557610100808354040283529160200191610310565b820191906000526020600020905b8154815290600101906020018083116102f357829003601f168201915b5050505050908060010160009054906101000a900460ff169080600201805461033890611d9d565b80601f016020809104026020016040519081016040528092919081815260200182805461036490611d9d565b80156103b15780601f10610386576101008083540402835291602001916103b1565b820191906000526020600020905b81548152906001019060200180831161039457829003601f168201915b5050505050908060030180546103c690611d9d565b80601f01602080910402602001604051908101604052809291908181526020018280546103f290611d9d565b801561043f5780601f106104145761010080835404028352916020019161043f565b820191906000526020600020905b81548152906001019060200180831161042257829003601f168201915b5050505050908060040160009054906101000a900460ff16908060050154905086565b60008054906101000a900473ffffffffffffffffffffffffffffffffffffffff1673ffffffffffffffffffffffffffffffffffffffff163373ffffffffffffffffffffffffffffffffffffffff16146104f0576040517f08c379a00000000000000000000000000000000000000000000000000000000081526004016104e790611e40565b60405180910390fd5b600073ffffffffffffffffffffffffffffffffffffffff168173ffffffffffffffffffffffffffffffffffffffff160361055f576040517f08c379a000000000000000000000000000000000000000000000000000000000815260040161055690611eac565b60405180910390fd5b60018060008373ffffffffffffffffffffffffffffffffffffffff1673ffffffffffffffffffffffffffffffffffffffff16815260200190815260200160002060006101000a81548160ff0219169083151502179055508073ffffffffffffffffffffffffffffffffffffffff167f3b4a40cccf2058c593542587329dd385be4f0b588db5471fbd9598e56dd7093a60405160405180910390a250565b60008054906101000a900473ffffffffffffffffffffffffffffffffffffffff1673ffffffffffffffffffffffffffffffffffffffff163373ffffffffffffffffffffffffffffffffffffffff16148061069f5750600160003373ffffffffffffffffffffffffffffffffffffffff1673ffffffffffffffffffffffffffffffffffffffff16815260200190815260200160002060009054906101000a900460ff165b6106de576040517f08c379a00000000000000000000000000000000000000000000000000000000081526004016106d590611f3e565b60405180910390fd5b600073ffffffffffffffffffffffffffffffffffffffff168573ffffffffffffffffffffffffffffffffffffffff160361074d576040517f08c379a000000000000000000000000000000000000000000000000000000000815260040161074490611faa565b60405180910390fd5b6000845111610791576040517f08c379a000000000000000000000000000000000000000000000000000000000815260040161078890612016565b60405180910390fd5b60008251116107d5576040517f08c379a00000000000000000000000000000000000000000000000000000000081526004016107cc90612082565b60405180910390fd5b600060058111156107e9576107e86117ca565b5b8360058111156107fc576107fb6117ca565b5b0361083c576040517f08c379a0000000000000000000000000000000000000000000000000000000008152600401610833906120ee565b60405180910390fd5b6040518060c001604052808581526020018460058111156108605761085f6117ca565b5b815260200183815260200182815260200160011515815260200142815250600260008773ffffffffffffffffffffffffffffffffffffffff1673ffffffffffffffffffffffffffffffffffffffff16815260200190815260200160002060008201518160000190816108d291906122ba565b5060208201518160010160006101000a81548160ff021916908360058111156108fe576108fd6117ca565b5b0217905550604082015181600201908161091891906122ba565b50606082015181600301908161092e91906122ba565b5060808201518160040160006101000a81548160ff02191690831515021790555060a082015181600501559050508473ffffffffffffffffffffffffffffffffffffffff167f67ad3baae3c8279fb01d6c353d23c4ba1b9cb9ca17f8445388579d00a229cd5085856040516109a492919061238c565b60405180910390a25050505050565b60008054906101000a900473ffffffffffffffffffffffffffffffffffffffff1673ffffffffffffffffffffffffffffffffffffffff163373ffffffffffffffffffffffffffffffffffffffff1614610a41576040517f08c379a0000000000000000000000000000000000000000000000000000000008152600401610a3890611e40565b60405180910390fd5b600073ffffffffffffffffffffffffffffffffffffffff168173ffffffffffffffffffffffffffffffffffffffff1603610ab0576040517f08c379a0000000000000000000000000000000000000000000000000000000008152600401610aa790611eac565b60405180910390fd5b806000806101000a81548173ffffffffffffffffffffffffffffffffffffffff021916908373ffffffffffffffffffffffffffffffffffffffff16021790555060018060008373ffffffffffffffffffffffffffffffffffffffff1673ffffffffffffffffffffffffffffffffffffffff16815260200190815260200160002060006101000a81548160ff02191690831515021790555050565b610b52611651565b600260008373ffffffffffffffffffffffffffffffffffffffff1673ffffffffffffffffffffffffffffffffffffffff1681526020019081526020016000206040518060c0016040529081600082018054610bac90611d9d565b80601f0160208091040260200160405190810160405280929190818152602001828054610bd890611d9d565b8015610c255780601f10610bfa57610100808354040283529160200191610c25565b820191906000526020600020905b815481529060010190602001808311610c0857829003601f168201915b505050505081526020016001820160009054906101000a900460ff166005811115610c5357610c526117ca565b5b6005811115610c6557610c646117ca565b5b8152602001600282018054610c7990611d9d565b80601f0160208091040260200160405190810160405280929190818152602001828054610ca590611d9d565b8015610cf25780601f10610cc757610100808354040283529160200191610cf2565b820191906000526020600020905b815481529060010190602001808311610cd557829003601f168201915b50505050508152602001600382018054610d0b90611d9d565b80601f0160208091040260200160405190810160405280929190818152602001828054610d3790611d9d565b8015610d845780601f10610d5957610100808354040283529160200191610d84565b820191906000526020600020905b815481529060010190602001808311610d6757829003601f168201915b505050505081526020016004820160009054906101000a900460ff161515151581526020016005820154815250509050919050565b6003818051602081018201805184825260208301602085012081835280955050505050506000915054906101000a900473ffffffffffffffffffffffffffffffffffffffff1681565b60008054906101000a900473ffffffffffffffffffffffffffffffffffffffff1673ffffffffffffffffffffffffffffffffffffffff163373ffffffffffffffffffffffffffffffffffffffff1614610e90576040517f08c379a0000000000000000000000000000000000000000000000000000000008152600401610e8790611e40565b60405180910390fd5b60008054906101000a900473ffffffffffffffffffffffffffffffffffffffff1673ffffffffffffffffffffffffffffffffffffffff168173ffffffffffffffffffffffffffffffffffffffff1603610f1e576040517f08c379a0000000000000000000000000000000000000000000000000000000008152600401610f1590612408565b60405180910390fd5b6000600160008373ffffffffffffffffffffffffffffffffffffffff1673ffffffffffffffffffffffffffffffffffffffff16815260200190815260200160002060006101000a81548160ff0219169083151502179055508073ffffffffffffffffffffffffffffffffffffffff167fef69f7d97228658c92417be1b16b19058315de71fecb435d07b7d23728b6bd3160405160405180910390a250565b6000600260008473ffffffffffffffffffffffffffffffffffffffff1673ffffffffffffffffffffffffffffffffffffffff16815260200190815260200160002060040160009054906101000a900460ff16801561108c5750816005811115611028576110276117ca565b5b600260008573ffffffffffffffffffffffffffffffffffffffff1673ffffffffffffffffffffffffffffffffffffffff16815260200190815260200160002060010160009054906101000a900460ff16600581111561108a576110896117ca565b5b145b905092915050565b60008251116110d8576040517f08c379a00000000000000000000000000000000000000000000000000000000081526004016110cf90612474565b60405180910390fd5b600260008273ffffffffffffffffffffffffffffffffffffffff1673ffffffffffffffffffffffffffffffffffffffff16815260200190815260200160002060040160009054906101000a900460ff16611167576040517f08c379a000000000000000000000000000000000000000000000000000000000815260040161115e90612506565b60405180910390fd5b8073ffffffffffffffffffffffffffffffffffffffff163373ffffffffffffffffffffffffffffffffffffffff1614806111ea5750600160003373ffffffffffffffffffffffffffffffffffffffff1673ffffffffffffffffffffffffffffffffffffffff16815260200190815260200160002060009054906101000a900460ff165b611229576040517f08c379a000000000000000000000000000000000000000000000000000000000815260040161122090612598565b60405180910390fd5b6002600581111561123d5761123c6117ca565b5b600260008373ffffffffffffffffffffffffffffffffffffffff1673ffffffffffffffffffffffffffffffffffffffff16815260200190815260200160002060010160009054906101000a900460ff16600581111561129f5761129e6117ca565b5b148061131e5750600160058111156112ba576112b96117ca565b5b600260008373ffffffffffffffffffffffffffffffffffffffff1673ffffffffffffffffffffffffffffffffffffffff16815260200190815260200160002060010160009054906101000a900460ff16600581111561131c5761131b6117ca565b5b145b8061139c575060046005811115611338576113376117ca565b5b600260008373ffffffffffffffffffffffffffffffffffffffff1673ffffffffffffffffffffffffffffffffffffffff16815260200190815260200160002060010160009054906101000a900460ff16600581111561139a576113996117ca565b5b145b6113db576040517f08c379a00000000000000000000000000000000000000000000000000000000081526004016113d29061262a565b60405180910390fd5b806003836040516113ec9190612686565b908152602001604051809103902060006101000a81548173ffffffffffffffffffffffffffffffffffffffff021916908373ffffffffffffffffffffffffffffffffffffffff1602179055508073ffffffffffffffffffffffffffffffffffffffff167f042492cec2f70575800b9c5cfb0359c84e3254eb8c986f2e9dc0d905d1060a158360405161147e919061269d565b60405180910390a25050565b60008054906101000a900473ffffffffffffffffffffffffffffffffffffffff1673ffffffffffffffffffffffffffffffffffffffff163373ffffffffffffffffffffffffffffffffffffffff16148061152d5750600160003373ffffffffffffffffffffffffffffffffffffffff1673ffffffffffffffffffffffffffffffffffffffff16815260200190815260200160002060009054906101000a900460ff165b61156c576040517f08c379a000000000000000000000000000000000000000000000000000000000815260040161156390611f3e565b60405180910390fd5b6000600260008373ffffffffffffffffffffffffffffffffffffffff1673ffffffffffffffffffffffffffffffffffffffff16815260200190815260200160002060040160006101000a81548160ff0219169083151502179055508073ffffffffffffffffffffffffffffffffffffffff167f99fdeeec075823d23f0e1926979b27aaab3c6d7fccdbbea8914592d98896d74160405160405180910390a250565b60008054906101000a900473ffffffffffffffffffffffffffffffffffffffff1681565b60016020528060005260406000206000915054906101000a900460ff1681565b6040518060c001604052806060815260200160006005811115611677576116766117ca565b5b81526020016060815260200160608152602001600015158152602001600081525090565b6000604051905090565b600080fd5b600080fd5b600073ffffffffffffffffffffffffffffffffffffffff82169050919050565b60006116da826116af565b9050919050565b6116ea816116cf565b81146116f557600080fd5b50565b600081359050611707816116e1565b92915050565b600060208284031215611723576117226116a5565b5b6000611731848285016116f8565b91505092915050565b600081519050919050565b600082825260208201905092915050565b60005b83811015611774578082015181840152602081019050611759565b60008484015250505050565b6000601f19601f8301169050919050565b600061179c8261173a565b6117a68185611745565b93506117b6818560208601611756565b6117bf81611780565b840191505092915050565b7f4e487b7100000000000000000000000000000000000000000000000000000000600052602160045260246000fd5b6006811061180a576118096117ca565b5b50565b600081905061181b826117f9565b919050565b600061182b8261180d565b9050919050565b61183b81611820565b82525050565b60008115159050919050565b61185681611841565b82525050565b6000819050919050565b61186f8161185c565b82525050565b600060c082019050818103600083015261188f8189611791565b905061189e6020830188611832565b81810360408301526118b08187611791565b905081810360608301526118c48186611791565b90506118d3608083018561184d565b6118e060a0830184611866565b979650505050505050565b600080fd5b600080fd5b7f4e487b7100000000000000000000000000000000000000000000000000000000600052604160045260246000fd5b61192d82611780565b810181811067ffffffffffffffff8211171561194c5761194b6118f5565b5b80604052505050565b600061195f61169b565b905061196b8282611924565b919050565b600067ffffffffffffffff82111561198b5761198a6118f5565b5b61199482611780565b9050602081019050919050565b82818337600083830152505050565b60006119c36119be84611970565b611955565b9050828152602081018484840111156119df576119de6118f0565b5b6119ea8482856119a1565b509392505050565b600082601f830112611a0757611a066118eb565b5b8135611a178482602086016119b0565b91505092915050565b60068110611a2d57600080fd5b50565b600081359050611a3f81611a20565b92915050565b600080600080600060a08688031215611a6157611a606116a5565b5b6000611a6f888289016116f8565b955050602086013567ffffffffffffffff811115611a9057611a8f6116aa565b5b611a9c888289016119f2565b9450506040611aad88828901611a30565b935050606086013567ffffffffffffffff811115611ace57611acd6116aa565b5b611ada888289016119f2565b925050608086013567ffffffffffffffff811115611afb57611afa6116aa565b5b611b07888289016119f2565b9150509295509295909350565b600082825260208201905092915050565b6000611b308261173a565b611b3a8185611b14565b9350611b4a818560208601611756565b611b5381611780565b840191505092915050565b611b6781611820565b82525050565b611b7681611841565b82525050565b611b858161185c565b82525050565b600060c0830160008301518482036000860152611ba88282611b25565b9150506020830151611bbd6020860182611b5e565b5060408301518482036040860152611bd58282611b25565b91505060608301518482036060860152611bef8282611b25565b9150506080830151611c046080860182611b6d565b5060a0830151611c1760a0860182611b7c565b508091505092915050565b60006020820190508181036000830152611c3c8184611b8b565b905092915050565b600060208284031215611c5a57611c596116a5565b5b600082013567ffffffffffffffff811115611c7857611c776116aa565b5b611c84848285016119f2565b91505092915050565b611c96816116cf565b82525050565b6000602082019050611cb16000830184611c8d565b92915050565b60008060408385031215611cce57611ccd6116a5565b5b6000611cdc858286016116f8565b9250506020611ced85828601611a30565b9150509250929050565b6000602082019050611d0c600083018461184d565b92915050565b60008060408385031215611d2957611d286116a5565b5b600083013567ffffffffffffffff811115611d4757611d466116aa565b5b611d53858286016119f2565b9250506020611d64858286016116f8565b9150509250929050565b7f4e487b7100000000000000000000000000000000000000000000000000000000600052602260045260246000fd5b60006002820490506001821680611db557607f821691505b602082108103611dc857611dc7611d6e565b5b50919050565b7f4f6e6c79207072696d6172792061646d696e2063616e20706572666f726d207460008201527f68697320616374696f6e00000000000000000000000000000000000000000000602082015250565b6000611e2a602a83611745565b9150611e3582611dce565b604082019050919050565b60006020820190508181036000830152611e5981611e1d565b9050919050565b7f496e76616c696420616464726573730000000000000000000000000000000000600082015250565b6000611e96600f83611745565b9150611ea182611e60565b602082019050919050565b60006020820190508181036000830152611ec581611e89565b9050919050565b7f4e6f7420617574686f72697a65643a204d616e6167657220726f6c652072657160008201527f7569726564000000000000000000000000000000000000000000000000000000602082015250565b6000611f28602583611745565b9150611f3382611ecc565b604082019050919050565b60006020820190508181036000830152611f5781611f1b565b9050919050565b7f496e76616c6964206163636f756e742061646472657373000000000000000000600082015250565b6000611f94601783611745565b9150611f9f82611f5e565b602082019050919050565b60006020820190508181036000830152611fc381611f87565b9050919050565b7f4e616d652063616e6e6f7420626520656d707479000000000000000000000000600082015250565b6000612000601483611745565b915061200b82611fca565b602082019050919050565b6000602082019050818103600083015261202f81611ff3565b9050919050565b7f4c6963656e73652063616e6e6f7420626520656d707479000000000000000000600082015250565b600061206c601783611745565b915061207782612036565b602082019050919050565b6000602082019050818103600083015261209b8161205f565b9050919050565b7f4d7573742061737369676e20612076616c696420726f6c650000000000000000600082015250565b60006120d8601883611745565b91506120e3826120a2565b602082019050919050565b60006020820190508181036000830152612107816120cb565b9050919050565b60008190508160005260206000209050919050565b60006020601f8301049050919050565b600082821b905092915050565b6000600883026121707fffffffffffffffffffffffffffffffffffffffffffffffffffffffffffffffff82612133565b61217a8683612133565b95508019841693508086168417925050509392505050565b6000819050919050565b60006121b76121b26121ad8461185c565b612192565b61185c565b9050919050565b6000819050919050565b6121d18361219c565b6121e56121dd826121be565b848454612140565b825550505050565b600090565b6121fa6121ed565b6122058184846121c8565b505050565b5b818110156122295761221e6000826121f2565b60018101905061220b565b5050565b601f82111561226e5761223f8161210e565b61224884612123565b81016020851015612257578190505b61226b61226385612123565b83018261220a565b50505b505050565b600082821c905092915050565b600061229160001984600802612273565b1980831691505092915050565b60006122aa8383612280565b9150826002028217905092915050565b6122c38261173a565b67ffffffffffffffff8111156122dc576122db6118f5565b5b6122e68254611d9d565b6122f182828561222d565b600060209050601f8311600181146123245760008415612312578287015190505b61231c858261229e565b865550612384565b601f1984166123328661210e565b60005b8281101561235a57848901518255600182019150602085019450602081019050612335565b868310156123775784890151612373601f891682612280565b8355505b6001600288020188555050505b505050505050565b600060408201905081810360008301526123a68185611791565b90506123b56020830184611832565b9392505050565b7f43616e6e6f742072656d6f7665207072696d6172792061646d696e0000000000600082015250565b60006123f2601b83611745565b91506123fd826123bc565b602082019050919050565b60006020820190508181036000830152612421816123e5565b9050919050565b7f53656e736f722049442063616e6e6f7420626520656d70747900000000000000600082015250565b600061245e601983611745565b915061246982612428565b602082019050919050565b6000602082019050818103600083015261248d81612451565b9050919050565b7f4f776e6572206d75737420626520616e2061637469766520726567697374657260008201527f656420656e746974790000000000000000000000000000000000000000000000602082015250565b60006124f0602983611745565b91506124fb82612494565b604082019050919050565b6000602082019050818103600083015261251f816124e3565b9050919050565b7f556e617574686f72697a65643a204f6e6c79206f776e6572206f72206d616e6160008201527f6765722063616e20726567697374657220646576696365000000000000000000602082015250565b6000612582603783611745565b915061258d82612526565b604082019050919050565b600060208201905081810360008301526125b181612575565b9050919050565b7f4f776e657220726f6c6520756e617574686f72697a656420666f7220496f542060008201527f6465766963657300000000000000000000000000000000000000000000000000602082015250565b6000612614602783611745565b915061261f826125b8565b604082019050919050565b6000602082019050818103600083015261264381612607565b9050919050565b600081905092915050565b60006126608261173a565b61266a818561264a565b935061267a818560208601611756565b80840191505092915050565b60006126928284612655565b915081905092915050565b600060208201905081810360008301526126b78184611791565b90509291505056fea264697066735822122065a03851b12f87f18866c3e3b73023801a784a864c5eff088925b94cd169d44264736f6c63430008130033",
  "linkReferences": {},
  "deployedLinkReferences": {}
}