{
  "_format": "hh-sol-artifact-1",
  "contractName": "ColdChain",
  "sourceName": "contracts/ColdChain.sol",
  "abi": [
    {
      "inputs": [],
      "stateMutability": "nonpayable",
      "type": "constructor"
    },
    {
      "anonymous": false,
      "inputs": [
        {
          "indexed": true,
          "internalType": "string",
          "name": "shipmentId",
          "type": "string"
        },
        {
          "indexed": false,
          "internalType": "string",
          "name": "docType",
          "type": "string"
        },
        {
          "indexed": false,
          "internalType": "string",
          "name": "cid",
          "type": "string"
        },
        {
          "indexed": false,
          "internalType": "address",
          "name": "uploader",
          "type": "address"
        }
      ],
      "name": "DocumentUploaded",
      "type": "event"
    },
    {
      "anonymous": false,
      "inputs": [
        {
          "indexed": true,
          "internalType": "string",
          "name": "shipmentId",
          "type": "string"
        },
        {
          "indexed": true,
          "internalType": "address",
          "name": "manufacturer",
          "type": "address"
        },
        {
          "indexed": true,
          "internalType": "address",
          "name": "carrier",
          "type": "address"
        }
      ],
      "name": "ShipmentCreated",
      "type": "event"
    },
    {
      "anonymous": false,
      "inputs": [
        {
          "indexed": true,
          "internalType": "string",
          "name": "shipmentId",
          "type": "string"
        },
        {
          "indexed": true,
          "internalType": "address",
          "name": "dealer",
          "type": "address"
        },
        {
          "indexed": false,
          "internalType": "uint256",
          "name": "timestamp",
          "type": "uint256"
        }
      ],
      "name": "ShipmentDelivered",
      "type": "event"
    },
    {
      "anonymous": false,
      "inputs": [
        {
          "indexed": true,
          "internalType": "string",
          "name": "shipmentId",
          "type": "string"
        },
        {
          "indexed": false,
          "internalType": "string",
          "name": "reason",
          "type": "string"
        }
      ],
      "name": "TamperingDetected",
      "type": "event"
    },
    {
      "anonymous": false,
      "inputs": [
        {
          "indexed": true,
          "internalType": "string",
          "name": "shipmentId",
          "type": "string"
        },
        {
          "indexed": false,
          "internalType": "int256",
          "name": "temperature",
          "type": "int256"
        },
        {
          "indexed": false,
          "internalType": "string",
          "name": "location",
          "type": "string"
        },
        {
          "indexed": false,
          "internalType": "address",
          "name": "logger",
          "type": "address"
        }
      ],
      "name": "TemperatureLogged",
      "type": "event"
    },
    {
      "inputs": [
        {
          "internalType": "string",
          "name": "_shipmentId",
          "type": "string"
        }
      ],
      "name": "confirmDelivery",
      "outputs": [],
      "stateMutability": "nonpayable",
      "type": "function"
    },
    {
      "inputs": [
        {
          "internalType": "string",
          "name": "_shipmentId",
          "type": "string"
        },
        {
          "internalType": "string",
          "name": "_productName",
          "type": "string"
        },
        {
          "internalType": "address",
          "name": "_carrier",
          "type": "address"
        },
        {
          "internalType": "address",
          "name": "_dealer",
          "type": "address"
        },
        {
          "internalType": "int256",
          "name": "_minTemp",
          "type": "int256"
        },
        {
          "internalType": "int256",
          "name": "_maxTemp",
          "type": "int256"
        }
      ],
      "name": "createShipment",
      "outputs": [],
      "stateMutability": "nonpayable",
      "type": "function"
    },
    {
      "inputs": [
        {
          "internalType": "string",
          "name": "_shipmentId",
          "type": "string"
        }
      ],
      "name": "getDocuments",
      "outputs": [
        {
          "components": [
            {
              "internalType": "string",
              "name": "docType",
              "type": "string"
            },
            {
              "internalType": "string",
              "name": "cid",
              "type": "string"
            },
            {
              "internalType": "string",
              "name": "sha256Hash",
              "type": "string"
            },
            {
              "internalType": "uint256",
              "name": "timestamp",
              "type": "uint256"
            },
            {
              "internalType": "address",
              "name": "uploader",
              "type": "address"
            }
          ],
          "internalType": "struct ColdChain.Document[]",
          "name": "",
          "type": "tuple[]"
        }
      ],
      "stateMutability": "view",
      "type": "function"
    },
    {
      "inputs": [
        {
          "internalType": "string",
          "name": "_shipmentId",
          "type": "string"
        }
      ],
      "name": "getTemperatureLogs",
      "outputs": [
        {
          "components": [
            {
              "internalType": "int256",
              "name": "temperature",
              "type": "int256"
            },
            {
              "internalType": "string",
              "name": "location",
              "type": "string"
            },
            {
              "internalType": "uint256",
              "name": "timestamp",
              "type": "uint256"
            },
            {
              "internalType": "address",
              "name": "logger",
              "type": "address"
            }
          ],
          "internalType": "struct ColdChain.TemperatureLog[]",
          "name": "",
          "type": "tuple[]"
        }
      ],
      "stateMutability": "view",
      "type": "function"
    },
    {
      "inputs": [
        {
          "internalType": "string",
          "name": "_shipmentId",
          "type": "string"
        },
        {
          "internalType": "int256",
          "name": "_temperature",
          "type": "int256"
        },
        {
          "internalType": "string",
          "name": "_location",
          "type": "string"
        }
      ],
      "name": "logTemperature",
      "outputs": [],
      "stateMutability": "nonpayable",
      "type": "function"
    },
    {
      "inputs": [
        {
          "internalType": "string",
          "name": "",
          "type": "string"
        }
      ],
      "name": "shipments",
      "outputs": [
        {
          "internalType": "string",
          "name": "shipmentId",
          "type": "string"
        },
        {
          "internalType": "string",
          "name": "productName",
          "type": "string"
        },
        {
          "internalType": "address",
          "name": "manufacturer",
          "type": "address"
        },
        {
          "internalType": "address",
          "name": "carrier",
          "type": "address"
        },
        {
          "internalType": "address",
          "name": "dealer",
          "type": "address"
        },
        {
          "internalType": "enum ColdChain.Status",
          "name": "status",
          "type": "uint8"
        },
        {
          "internalType": "uint256",
          "name": "creationTime",
          "type": "uint256"
        },
        {
          "internalType": "uint256",
          "name": "deliveryTime",
          "type": "uint256"
        },
        {
          "internalType": "int256",
          "name": "minTemp",
          "type": "int256"
        },
        {
          "internalType": "int256",
          "name": "maxTemp",
          "type": "int256"
        }
      ],
      "stateMutability": "view",
      "type": "function"
    },
    {
      "inputs": [
        {
          "internalType": "string",
          "name": "_shipmentId",
          "type": "string"
        },
        {
          "internalType": "string",
          "name": "_docType",
          "type": "string"
        },
        {
          "internalType": "string",
          "name": "_cid",
          "type": "string"
        },
        {
          "internalType": "string",
          "name": "_sha256Hash",
          "type": "string"
        }
      ],
      "name": "uploadDocument",
      "outputs": [],
      "stateMutability": "nonpayable",
      "type": "function"
    }
  ],
  "bytecode": "0x608060405234801561001057600080fd5b50612957806100206000396000f3fe608060405234801561001057600080fd5b506004361061007d5760003560e01c80633ef9d9e11161005b5780633ef9d9e1146100ea5780635ceaef5b14610106578063a45064601461013f578063d7fc6e5e1461015b5761007d565b8063155b9e441461008257806327bbd5cc1461009e5780633b0a6139146100ba575b600080fd5b61009c60048036038101906100979190611a01565b61018b565b005b6100b860048036038101906100b39190611aea565b6106ef565b005b6100d460048036038101906100cf9190611baf565b610a2f565b6040516100e19190611de5565b60405180910390f35b61010460048036038101906100ff9190611e07565b610cc2565b005b610120600480360381019061011b9190611baf565b6111ac565b6040516101369a99989796959493929190611fcc565b60405180910390f35b61015960048036038101906101549190611baf565b611393565b005b61017560048036038101906101709190611baf565b6116f8565b60405161018291906121aa565b60405180910390f35b82600073ffffffffffffffffffffffffffffffffffffffff166000826040516101b49190612208565b908152602001604051809103902060020160009054906101000a900473ffffffffffffffffffffffffffffffffffffffff1673ffffffffffffffffffffffffffffffffffffffff160361023c576040517f08c379a00000000000000000000000000000000000000000000000000000000081526004016102339061226b565b60405180910390fd5b836002600381111561025157610250611f37565b5b6000826040516102619190612208565b908152602001604051809103902060040160149054906101000a900460ff16600381111561029257610291611f37565b5b036102d2576040517f08c379a00000000000000000000000000000000000000000000000000000000081526004016102c9906122d7565b60405180910390fd5b6003808111156102e5576102e4611f37565b5b6000826040516102f59190612208565b908152602001604051809103902060040160149054906101000a900460ff16600381111561032657610325611f37565b5b03610366576040517f08c379a000000000000000000000000000000000000000000000000000000000815260040161035d90612343565b60405180910390fd5b846000816040516103779190612208565b908152602001604051809103902060030160009054906101000a900473ffffffffffffffffffffffffffffffffffffffff1673ffffffffffffffffffffffffffffffffffffffff163373ffffffffffffffffffffffffffffffffffffffff1614610416576040517f08c379a000000000000000000000000000000000000000000000000000000000815260040161040d906123af565b60405180910390fd5b6000600381111561042a57610429611f37565b5b60008760405161043a9190612208565b908152602001604051809103902060040160149054906101000a900460ff16600381111561046b5761046a611f37565b5b036104bb5760016000876040516104829190612208565b908152602001604051809103902060040160146101000a81548160ff021916908360038111156104b5576104b4611f37565b5b02179055505b6002866040516104cb9190612208565b908152602001604051809103902060405180608001604052808781526020018681526020014281526020013373ffffffffffffffffffffffffffffffffffffffff16815250908060018154018082558091505060019003906000526020600020906004020160009091909190915060008201518160000155602082015181600101908161055891906125db565b506040820151816002015560608201518160030160006101000a81548173ffffffffffffffffffffffffffffffffffffffff021916908373ffffffffffffffffffffffffffffffffffffffff1602179055505050856040516105ba9190612208565b60405180910390207ffd1294625417b79f57304db4f12bc1e779da318ec7dddd4bf5ff7df2af9fdd9d8686336040516105f5939291906126ad565b60405180910390a260008660405161060d9190612208565b90815260200160405180910390206007015485128061064c57506000866040516106379190612208565b90815260200160405180910390206008015485135b156106e75760036000876040516106639190612208565b908152602001604051809103902060040160146101000a81548160ff0219169083600381111561069657610695611f37565b5b0217905550856040516106a99190612208565b60405180910390207f01d9fee2940953f9a19df585a818864340954311f35f623406334c6f714824586040516106de90612737565b60405180910390a25b505050505050565b600073ffffffffffffffffffffffffffffffffffffffff166000876040516107179190612208565b908152602001604051809103902060020160009054906101000a900473ffffffffffffffffffffffffffffffffffffffff1673ffffffffffffffffffffffffffffffffffffffff161461079f576040517f08c379a0000000000000000000000000000000000000000000000000000000008152600401610796906127a3565b60405180910390fd5b6040518061014001604052808781526020018681526020013373ffffffffffffffffffffffffffffffffffffffff1681526020018573ffffffffffffffffffffffffffffffffffffffff1681526020018473ffffffffffffffffffffffffffffffffffffffff1681526020016000600381111561081f5761081e611f37565b5b8152602001428152602001600081526020018381526020018281525060008760405161084b9190612208565b9081526020016040518091039020600082015181600001908161086e91906125db565b50602082015181600101908161088491906125db565b5060408201518160020160006101000a81548173ffffffffffffffffffffffffffffffffffffffff021916908373ffffffffffffffffffffffffffffffffffffffff16021790555060608201518160030160006101000a81548173ffffffffffffffffffffffffffffffffffffffff021916908373ffffffffffffffffffffffffffffffffffffffff16021790555060808201518160040160006101000a81548173ffffffffffffffffffffffffffffffffffffffff021916908373ffffffffffffffffffffffffffffffffffffffff16021790555060a08201518160040160146101000a81548160ff0219169083600381111561098557610984611f37565b5b021790555060c0820151816005015560e08201518160060155610100820151816007015561012082015181600801559050508373ffffffffffffffffffffffffffffffffffffffff163373ffffffffffffffffffffffffffffffffffffffff16876040516109f39190612208565b60405180910390207fa2e1697fc418aa0092973731742924954c645da2e7c8e9431707e4458b83ec8060405160405180910390a4505050505050565b6060600182604051610a419190612208565b9081526020016040518091039020805480602002602001604051908101604052809291908181526020016000905b82821015610cb757838290600052602060002090600502016040518060a0016040529081600082018054610aa2906123fe565b80601f0160208091040260200160405190810160405280929190818152602001828054610ace906123fe565b8015610b1b5780601f10610af057610100808354040283529160200191610b1b565b820191906000526020600020905b815481529060010190602001808311610afe57829003601f168201915b50505050508152602001600182018054610b34906123fe565b80601f0160208091040260200160405190810160405280929190818152602001828054610b60906123fe565b8015610bad5780601f10610b8257610100808354040283529160200191610bad565b820191906000526020600020905b815481529060010190602001808311610b9057829003601f168201915b50505050508152602001600282018054610bc6906123fe565b80601f0160208091040260200160405190810160405280929190818152602001828054610bf2906123fe565b8015610c3f5780601f10610c1457610100808354040283529160200191610c3f565b820191906000526020600020905b815481529060010190602001808311610c2257829003601f168201915b50505050508152602001600382015481526020016004820160009054906101000a900473ffffffffffffffffffffffffffffffffffffffff1673ffffffffffffffffffffffffffffffffffffffff1673ffffffffffffffffffffffffffffffffffffffff168152505081526020019060010190610a6f565b505050509050919050565b83600073ffffffffffffffffffffffffffffffffffffffff16600082604051610ceb9190612208565b908152602001604051809103902060020160009054906101000a900473ffffffffffffffffffffffffffffffffffffffff1673ffffffffffffffffffffffffffffffffffffffff1603610d73576040517f08c379a0000000000000000000000000000000000000000000000000000000008152600401610d6a9061226b565b60405180910390fd5b8460026003811115610d8857610d87611f37565b5b600082604051610d989190612208565b908152602001604051809103902060040160149054906101000a900460ff166003811115610dc957610dc8611f37565b5b03610e09576040517f08c379a0000000000000000000000000000000000000000000000000000000008152600401610e00906122d7565b60405180910390fd5b600380811115610e1c57610e1b611f37565b5b600082604051610e2c9190612208565b908152602001604051809103902060040160149054906101000a900460ff166003811115610e5d57610e5c611f37565b5b03610e9d576040517f08c379a0000000000000000000000000000000000000000000000000000000008152600401610e9490612343565b60405180910390fd5b600086604051610ead9190612208565b908152602001604051809103902060020160009054906101000a900473ffffffffffffffffffffffffffffffffffffffff1673ffffffffffffffffffffffffffffffffffffffff163373ffffffffffffffffffffffffffffffffffffffff161480610f845750600086604051610f239190612208565b908152602001604051809103902060030160009054906101000a900473ffffffffffffffffffffffffffffffffffffffff1673ffffffffffffffffffffffffffffffffffffffff163373ffffffffffffffffffffffffffffffffffffffff16145b80610ffb5750600086604051610f9a9190612208565b908152602001604051809103902060040160009054906101000a900473ffffffffffffffffffffffffffffffffffffffff1673ffffffffffffffffffffffffffffffffffffffff163373ffffffffffffffffffffffffffffffffffffffff16145b61103a576040517f08c379a000000000000000000000000000000000000000000000000000000000815260040161103190612835565b60405180910390fd5b60018660405161104a9190612208565b90815260200160405180910390206040518060a001604052808781526020018681526020018581526020014281526020013373ffffffffffffffffffffffffffffffffffffffff16815250908060018154018082558091505060019003906000526020600020906005020160009091909190915060008201518160000190816110d391906125db565b5060208201518160010190816110e991906125db565b5060408201518160020190816110ff91906125db565b506060820151816003015560808201518160040160006101000a81548173ffffffffffffffffffffffffffffffffffffffff021916908373ffffffffffffffffffffffffffffffffffffffff1602179055505050856040516111619190612208565b60405180910390207f9cdb9982210c2766a1d72843e5b2cc44c7e46d129a2231d74861624b88d8b6e586863360405161119c93929190612855565b60405180910390a2505050505050565b6000818051602081018201805184825260208301602085012081835280955050505050506000915090508060000180546111e5906123fe565b80601f0160208091040260200160405190810160405280929190818152602001828054611211906123fe565b801561125e5780601f106112335761010080835404028352916020019161125e565b820191906000526020600020905b81548152906001019060200180831161124157829003601f168201915b505050505090806001018054611273906123fe565b80601f016020809104026020016040519081016040528092919081815260200182805461129f906123fe565b80156112ec5780601f106112c1576101008083540402835291602001916112ec565b820191906000526020600020905b8154815290600101906020018083116112cf57829003601f168201915b5050505050908060020160009054906101000a900473ffffffffffffffffffffffffffffffffffffffff16908060030160009054906101000a900473ffffffffffffffffffffffffffffffffffffffff16908060040160009054906101000a900473ffffffffffffffffffffffffffffffffffffffff16908060040160149054906101000a900460ff1690806005015490806006015490806007015490806008015490508a565b80600073ffffffffffffffffffffffffffffffffffffffff166000826040516113bc9190612208565b908152602001604051809103902060020160009054906101000a900473ffffffffffffffffffffffffffffffffffffffff1673ffffffffffffffffffffffffffffffffffffffff1603611444576040517f08c379a000000000000000000000000000000000000000000000000000000000815260040161143b9061226b565b60405180910390fd5b816002600381111561145957611458611f37565b5b6000826040516114699190612208565b908152602001604051809103902060040160149054906101000a900460ff16600381111561149a57611499611f37565b5b036114da576040517f08c379a00000000000000000000000000000000000000000000000000000000081526004016114d1906122d7565b60405180910390fd5b6003808111156114ed576114ec611f37565b5b6000826040516114fd9190612208565b908152602001604051809103902060040160149054906101000a900460ff16600381111561152e5761152d611f37565b5b0361156e576040517f08c379a000000000000000000000000000000000000000000000000000000000815260040161156590612343565b60405180910390fd5b8260008160405161157f9190612208565b908152602001604051809103902060040160009054906101000a900473ffffffffffffffffffffffffffffffffffffffff1673ffffffffffffffffffffffffffffffffffffffff163373ffffffffffffffffffffffffffffffffffffffff161461161e576040517f08c379a0000000000000000000000000000000000000000000000000000000008152600401611615906128e6565b60405180910390fd5b60026000856040516116309190612208565b908152602001604051809103902060040160146101000a81548160ff0219169083600381111561166357611662611f37565b5b0217905550426000856040516116799190612208565b9081526020016040518091039020600601819055503373ffffffffffffffffffffffffffffffffffffffff16846040516116b39190612208565b60405180910390207f0247ea536ce93cfc5bfe2751c8cb79e1e1df0c04069c46a823cde42e867b9a91426040516116ea9190612906565b60405180910390a350505050565b606060028260405161170a9190612208565b9081526020016040518091039020805480602002602001604051908101604052809291908181526020016000905b82821015611866578382906000526020600020906004020160405180608001604052908160008201548152602001600182018054611775906123fe565b80601f01602080910402602001604051908101604052809291908181526020018280546117a1906123fe565b80156117ee5780601f106117c3576101008083540402835291602001916117ee565b820191906000526020600020905b8154815290600101906020018083116117d157829003601f168201915b50505050508152602001600282015481526020016003820160009054906101000a900473ffffffffffffffffffffffffffffffffffffffff1673ffffffffffffffffffffffffffffffffffffffff1673ffffffffffffffffffffffffffffffffffffffff168152505081526020019060010190611738565b505050509050919050565b6000604051905090565b600080fd5b600080fd5b600080fd5b600080fd5b6000601f19601f8301169050919050565b7f4e487b7100000000000000000000000000000000000000000000000000000000600052604160045260246000fd5b6118d88261188f565b810181811067ffffffffffffffff821117156118f7576118f66118a0565b5b80604052505050565b600061190a611871565b905061191682826118cf565b919050565b600067ffffffffffffffff821115611936576119356118a0565b5b61193f8261188f565b9050602081019050919050565b82818337600083830152505050565b600061196e6119698461191b565b611900565b90508281526020810184848401111561198a5761198961188a565b5b61199584828561194c565b509392505050565b600082601f8301126119b2576119b1611885565b5b81356119c284826020860161195b565b91505092915050565b6000819050919050565b6119de816119cb565b81146119e957600080fd5b50565b6000813590506119fb816119d5565b92915050565b600080600060608486031215611a1a57611a1961187b565b5b600084013567ffffffffffffffff811115611a3857611a37611880565b5b611a448682870161199d565b9350506020611a55868287016119ec565b925050604084013567ffffffffffffffff811115611a7657611a75611880565b5b611a828682870161199d565b9150509250925092565b600073ffffffffffffffffffffffffffffffffffffffff82169050919050565b6000611ab782611a8c565b9050919050565b611ac781611aac565b8114611ad257600080fd5b50565b600081359050611ae481611abe565b92915050565b60008060008060008060c08789031215611b0757611b0661187b565b5b600087013567ffffffffffffffff811115611b2557611b24611880565b5b611b3189828a0161199d565b965050602087013567ffffffffffffffff811115611b5257611b51611880565b5b611b5e89828a0161199d565b9550506040611b6f89828a01611ad5565b9450506060611b8089828a01611ad5565b9350506080611b9189828a016119ec565b92505060a0611ba289828a016119ec565b9150509295509295509295565b600060208284031215611bc557611bc461187b565b5b600082013567ffffffffffffffff811115611be357611be2611880565b5b611bef8482850161199d565b91505092915050565b600081519050919050565b600082825260208201905092915050565b6000819050602082019050919050565b600081519050919050565b600082825260208201905092915050565b60005b83811015611c5e578082015181840152602081019050611c43565b60008484015250505050565b6000611c7582611c24565b611c7f8185611c2f565b9350611c8f818560208601611c40565b611c988161188f565b840191505092915050565b6000819050919050565b611cb681611ca3565b82525050565b611cc581611aac565b82525050565b600060a0830160008301518482036000860152611ce88282611c6a565b91505060208301518482036020860152611d028282611c6a565b91505060408301518482036040860152611d1c8282611c6a565b9150506060830151611d316060860182611cad565b506080830151611d446080860182611cbc565b508091505092915050565b6000611d5b8383611ccb565b905092915050565b6000602082019050919050565b6000611d7b82611bf8565b611d858185611c03565b935083602082028501611d9785611c14565b8060005b85811015611dd35784840389528151611db48582611d4f565b9450611dbf83611d63565b925060208a01995050600181019050611d9b565b50829750879550505050505092915050565b60006020820190508181036000830152611dff8184611d70565b905092915050565b60008060008060808587031215611e2157611e2061187b565b5b600085013567ffffffffffffffff811115611e3f57611e3e611880565b5b611e4b8782880161199d565b945050602085013567ffffffffffffffff811115611e6c57611e6b611880565b5b611e788782880161199d565b935050604085013567ffffffffffffffff811115611e9957611e98611880565b5b611ea58782880161199d565b925050606085013567ffffffffffffffff811115611ec657611ec5611880565b5b611ed28782880161199d565b91505092959194509250565b600082825260208201905092915050565b6000611efa82611c24565b611f048185611ede565b9350611f14818560208601611c40565b611f1d8161188f565b840191505092915050565b611f3181611aac565b82525050565b7f4e487b7100000000000000000000000000000000000000000000000000000000600052602160045260246000fd5b60048110611f7757611f76611f37565b5b50565b6000819050611f8882611f66565b919050565b6000611f9882611f7a565b9050919050565b611fa881611f8d565b82525050565b611fb781611ca3565b82525050565b611fc6816119cb565b82525050565b6000610140820190508181036000830152611fe7818d611eef565b90508181036020830152611ffb818c611eef565b905061200a604083018b611f28565b612017606083018a611f28565b6120246080830189611f28565b61203160a0830188611f9f565b61203e60c0830187611fae565b61204b60e0830186611fae565b612059610100830185611fbd565b612067610120830184611fbd565b9b9a5050505050505050505050565b600081519050919050565b600082825260208201905092915050565b6000819050602082019050919050565b6120ab816119cb565b82525050565b60006080830160008301516120c960008601826120a2565b50602083015184820360208601526120e18282611c6a565b91505060408301516120f66040860182611cad565b5060608301516121096060860182611cbc565b508091505092915050565b600061212083836120b1565b905092915050565b6000602082019050919050565b600061214082612076565b61214a8185612081565b93508360208202850161215c85612092565b8060005b8581101561219857848403895281516121798582612114565b945061218483612128565b925060208a01995050600181019050612160565b50829750879550505050505092915050565b600060208201905081810360008301526121c48184612135565b905092915050565b600081905092915050565b60006121e282611c24565b6121ec81856121cc565b93506121fc818560208601611c40565b80840191505092915050565b600061221482846121d7565b915081905092915050565b7f536869706d656e7420646f6573206e6f74206578697374000000000000000000600082015250565b6000612255601783611ede565b91506122608261221f565b602082019050919050565b6000602082019050818103600083015261228481612248565b9050919050565b7f536869706d656e7420616c72656164792064656c697665726564000000000000600082015250565b60006122c1601a83611ede565b91506122cc8261228b565b602082019050919050565b600060208201905081810360008301526122f0816122b4565b9050919050565b7f536869706d656e74206d61726b65642061732074616d70657265640000000000600082015250565b600061232d601b83611ede565b9150612338826122f7565b602082019050919050565b6000602082019050818103600083015261235c81612320565b9050919050565b7f4e6f742074686520436172726965720000000000000000000000000000000000600082015250565b6000612399600f83611ede565b91506123a482612363565b602082019050919050565b600060208201905081810360008301526123c88161238c565b9050919050565b7f4e487b7100000000000000000000000000000000000000000000000000000000600052602260045260246000fd5b6000600282049050600182168061241657607f821691505b602082108103612429576124286123cf565b5b50919050565b60008190508160005260206000209050919050565b60006020601f8301049050919050565b600082821b905092915050565b6000600883026124917fffffffffffffffffffffffffffffffffffffffffffffffffffffffffffffffff82612454565b61249b8683612454565b95508019841693508086168417925050509392505050565b6000819050919050565b60006124d86124d36124ce84611ca3565b6124b3565b611ca3565b9050919050565b6000819050919050565b6124f2836124bd565b6125066124fe826124df565b848454612461565b825550505050565b600090565b61251b61250e565b6125268184846124e9565b505050565b5b8181101561254a5761253f600082612513565b60018101905061252c565b5050565b601f82111561258f576125608161242f565b61256984612444565b81016020851015612578578190505b61258c61258485612444565b83018261252b565b50505b505050565b600082821c905092915050565b60006125b260001984600802612594565b1980831691505092915050565b60006125cb83836125a1565b9150826002028217905092915050565b6125e482611c24565b67ffffffffffffffff8111156125fd576125fc6118a0565b5b61260782546123fe565b61261282828561254e565b600060209050601f8311600181146126455760008415612633578287015190505b61263d85826125bf565b8655506126a5565b601f1984166126538661242f565b60005b8281101561267b57848901518255600182019150602085019450602081019050612656565b868310156126985784890151612694601f8916826125a1565b8355505b6001600288020188555050505b505050505050565b60006060820190506126c26000830186611fbd565b81810360208301526126d48185611eef565b90506126e36040830184611f28565b949350505050565b7f54656d7065726174757265205468726573686f6c642042726561636865640000600082015250565b6000612721601e83611ede565b915061272c826126eb565b602082019050919050565b6000602082019050818103600083015261275081612714565b9050919050565b7f536869706d656e7420494420616c726561647920657869737473000000000000600082015250565b600061278d601a83611ede565b915061279882612757565b602082019050919050565b600060208201905081810360008301526127bc81612780565b9050919050565b7f556e617574686f72697a656420746f2075706c6f616420646f63756d656e747360008201527f20666f72207468697320736869706d656e740000000000000000000000000000602082015250565b600061281f603283611ede565b915061282a826127c3565b604082019050919050565b6000602082019050818103600083015261284e81612812565b9050919050565b6000606082019050818103600083015261286f8186611eef565b905081810360208301526128838185611eef565b90506128926040830184611f28565b949350505050565b7f4e6f7420746865204465616c6572000000000000000000000000000000000000600082015250565b60006128d0600e83611ede565b91506128db8261289a565b602082019050919050565b600060208201905081810360008301526128ff816128c3565b9050919050565b600060208201905061291b6000830184611fae565b9291505056fea264697066735822122076815ec4b10705797578d91c6850b590198993753a7ae5c79b4b4d2d7ada84fa64736f6c63430008130033",
  "linkReferences": {},
  "deployedLinkReferences": {}
}